:020000040800F2
:10000000E00B00200101000879360008D72D000818
:10001000753600083F0800080D4000080000000089
:10002000000000000000000000000000E9360008A9
:100030009108000800000000BF360008EB360008F9
:100040001B0100081B0100081B0100081B01000820
:100050001B0100081B0100081B0100081B01000810
:100060001B0100081B0100081B01000845080008CF
:100070001B0100081B0100081B0100081B010008F0
:10008000550800081B0100081B0100081B0100089F
:100090001B0100081B0100081B0100081B010008D0
:1000A0001B0100081B0100081B0100081B010008C0
:1000B0001B0100081B0100081B0100081B010008B0
:1000C0001B0100081B0100081B0100081B010008A0
:1000D0001B010008ED3F0008FD3F00081B01000860
:1000E000930800081B0100081B010008DFF80CD072
:1000F00000F0B0F80048004715470008E00B00206A
:100100000648804706480047FEE7FEE7FEE7FEE7B1
:10011000FEE7FEE7FEE7FEE7FEE7FEE77B370008C7
:10012000ED000008202A04DB203A21FA02F0002129
:10013000704721FA02F3D040C2F1200291400843F7
:1001400019467047D2B201E000F8012B491EFBD2DC
:1001500070470022F6E710B513460A4604461946D2
:10016000FFF7F0FF204610BD70B5064603F07CFF98
:10017000046805460A220021304600F033F82C605E
:1001800070BD2DE9F05F0546002092469B468846EB
:100190000646814640241BE0284641464746224603
:1001A000FFF7C0FF53465A46C01A914110D311467B
:1001B0001846224600F060F82D1A67EB01084F46FA
:1001C00022460120002100F057F817EB00094E41AC
:1001D000201EA4F10104DFDC484631462A4643468E
:1001E000BDE8F09F2DE9F04791460F468046044652
:1001F000002614F8015B2DB100F04EF80068405D58
:10020000C007F6D12B2D02D02D2D18D0641E4A46E2
:100210003946204600F044F827B13968A14201D19F
:10022000C7F8008071054FF002040BD5404200284A
:1002300003DD03F019FF0460A007BDE8F08746F472
:100240008066E4E70028F8DA03F00EFF04606FF040
:100250000040F2E7064C074D06E0E06840F001037D
:1002600094E8070098471034AC42F6D3FFF742FFFA
:100270002450000844500008202A04DB203A00FAE9
:1002800002F1002070479140C2F1200320FA03F3ED
:10029000194390407047000000487047A04F000885
:1002A0002DE9F05F82460078002715468B460AF15B
:1002B0000104B946302801D09DB113E014F8010BB8
:1002C0000127782803D0582801D045B10AE00DB1A4
:1002D000102D07D10027102514F8010B02E0082586
:1002E00000E00A250026B0460EE005FB080005FBED
:1002F00006F1012701EB10461FFA80F8B6F5803FA2
:1003000000D3B94614F8010B294600F018F800286C
:10031000EBDABBF1000F05D00FB1641E00E05446CC
:10032000CBF80040B9F1000F06D003F09DFE02218A
:100330000160C81EBDE8F09F48EA0640FAE73A2887
:1003400000D2303820F02002412A01D3A2F1370038
:10035000884201D34FF0FF30704770B50446002546
:100360002068806800F0010018B32068806820F0E1
:1003700001002168886001F0ADF8054613E001F046
:10038000A9F8401B02280ED92068806800F00100FF
:1003900048B1A06A40F01000A062E06A40F001009D
:1003A000E062012070BD2068806800F00100002834
:1003B000E5D10020F6E770B505466C6AA06A00F04A
:1003C0005000E0B9A06A40F40070A0622068806824
:1003D00000F46020B0F5602F0DD1207B58B9A06AE1
:1003E00020F48070A062A06A00F4805018B9A06A5E
:1003F00040F00100A062204600F004FB03E0206A08
:10040000016B2846884770BD70B505466C6AA06AC6
:1004100040F04000A062E06A40F00400E062204644
:1004200000F0F2FA70BD70B50446656A284600F027
:10043000EAFA70BD38B50446002500200090206817
:10044000806800F0010078BB2068806840F00100FF
:1004500021688860194800681949B0FBF1F00090E4
:1004600002E00098401E009000980028F9D101F0A9
:1004700031F8054619E001F02DF8401B022814D987
:100480002068806800F0010078B9A06A40F0100090
:10049000A062E06A40F00100E06200BF002084F842
:1004A000240000BF012038BD05E02068806800F00E
:1004B00001000028DFD00020F5E700000C0000203C
:1004C00040420F0010B500200C4908600C494863F9
:1004D00048620863C862886208628861C861094925
:1004E0000860094908600949086000F007F9002020
:1004F00000F066F900200649088010BD3000002099
:10050000C80200201C000020200000202400002041
:100510002C00002001480088704700002C000020BB
:100520001FB500F007F900F097F800F0D3FF0A4973
:1005300008600A480A490B4A0023CDE90032CDE998
:100540000210094A4FF07F51084803F097F800F075
:10055000D5F8FFF7B7FF1FBD280000200000484373
:1005600000C0794400C079C4CDCCCC3DC802002085
:1005700070B504460D46B4F57A7F01DB40F2E734EE
:10058000002D07DD00F0C8F8204600F019F90B48EF
:10059000048011E0002D07DA00F0A2F8204600F0F8
:1005A0000FF90648048007E000F0A8F8002000F0EA
:1005B00007F900200149088070BD00002C000020D0
:1005C00001460B4800880B4A1288904201D1002056
:1005D00070470948074A1288805C087005480088FF
:1005E000401C00F03F00034A10800120F0E70000AB
:1005F0006E0000207000002060030020074A12886F
:10060000521C02F03F01064A1288914205D0054A69
:10061000024B1B88D054014A118070476E000020A5
:10062000700000206003002070B50446032C01DB3D
:10063000002070BD064830F814502946204604F0CA
:100640002DF8044850F82400C0F3CF00F1E7000073
:1006500072000020D003002070B500241FE00020AD
:1006600013490855134941F82400134921F814008F
:10067000002510E04FF40060104901EB041121F84F
:1006800015000C4850F8240000F50060094941F8B5
:100690002400681CC5B2082DECDB601CC4B2032C1E
:1006A000DDDB03220449064800F0C0FA70BD0000FB
:1006B00078000020D003002072000020A00300205A
:1006C000840000207047000010B53C21034801F071
:1006D000FFFD002001490968486210BD4C0100205F
:1006E00010B500220821044800F0EEFE012210217E
:1006F000014800F0E9FE10BD000C014010B50022D9
:100700000821044800F0E0FE00221021014800F01A
:10071000DBFE10BD000C014010B501220821044889
:1007200000F0D2FE00221021014800F0CDFE10BDE5
:10073000000C014000B585B00020019002900390AC
:10074000049000BF1448806940F008001249886195
:100750000846806900F00800009000BF00BF182024
:10076000019001200290002003900320049001A931
:100770000A4800F019FDFFF7C1FF0021084801F009
:1007800025FF07480068406C40F4004004490968B0
:10079000486405B000BD000000100240000C01409C
:1007A0000401002070B505460C4614B1FFF7B4FFF4
:1007B00002E0FFF7A3FF0025284600F001F870BD16
:1007C000B0F57A7F01DB40F2E730024909684863FF
:1007D000704700000401002010B50021034801F01B
:1007E000F5FE5A2000F004F810BD0000940100202E
:1007F00010B50446B42C00DDB424002C00DA00242B
:10080000204603F076FE02490968486310BD0000E7
:100810009401002010B50446012C02D0022C08D10E
:1008200003E01E20FFF7E4FF07E09620FFF7E0FF5C
:1008300003E05A20FFF7DCFF00BF00BF10BD00BF80
:10084000FEE7000010B5024800F034FB10BD0000C8
:10085000B400002010B5024800F02CFB10BD0000D1
:100860006C02002030B590F840500124AC40C56BBC
:100870006C60046863604468102C04D10468A26052
:100880000468E16003E00468A1600468E26030BDD0
:10089000704710B54FF4805000F078FC10BD72B670
:1008A00000BFFEE738B5024600230020009000BFDD
:1008B00092F82400012801D1022038BD012082F8DD
:1008C000240000BF4868072812D21068406B0C79DA
:1008D000641E04EB84051F24AC40A0430D796D1EFB
:1008E00005EB85050C68AC4020431468606327E085
:1008F00048680D2812D21068006B0C79E41F04EBD5
:1009000084051F24AC40A0430D79ED1F05EB850540
:100910000C68AC4020431468206311E01068C06A82
:100920000C790D3C04EB84051F24AC40A0430D79E9
:100930000D3D05EB85050C68AC4020431468E06272
:1009400008680A2812D31068C0680C780A3C04EBC7
:1009500044050724AC40A0430D780A3D05EB45054E
:100960008C68AC4020431468E0600FE010680069B8
:100970000C7804EB44050724AC40A0430D7805EB4C
:1009800045058C68AC402043146820610868102835
:1009900002D00868112827D1174C1068A0421ED138
:1009A0001068806800F40000F0B91068806840F4B6
:1009B00000001468A0600868102815D10F4800686E
:1009C0000F4CB0FBF4F000EB80004000009002E020
:1009D0000098401E009000980028F9D104E0906A29
:1009E00040F020009062012300BF002082F8240024
:1009F00000BF184661E70000002401400C00002001
:100A000040420F0070477047704700002DE9F041E9
:100A10000446002700250026A84614B90120BDE899
:100A2000F081A06810B1207D00B100BFA06A30B98C
:100A30000020E06284F82400204600F089F8204677
:100A4000FFF78BFC0746A06A00F01000002873D166
:100A5000002F71D1A06A20F4885040F00200A062FB
:100A6000E16960680843217B40EA41000643A068D1
:100A7000B0F5807F02D0A068012802D14FF48070C9
:100A800000E000200543207D012811D1207B38B9EA
:100A9000A069401E4FF4006141EA4030054307E081
:100AA000A06A40F02000A062E06A40F00100E0622D
:100AB0002068406820F46940284321684860206825
:100AC000806821490840304321688860A068B0F5FB
:100AD000807F02D0A068012802D14FF4807000E02E
:100AE0000020B0F5807F03D1208A401E4FEA0058D5
:100AF0002068C06A20F4700040EA08002168C862DB
:100B00002068806811490840B04208D10020E062A6
:100B1000A06A20F0020040F00100A06211E0A06A8B
:100B200020F0020040F01000A062E06A40F00100F6
:100B3000E062012705E0FFE7A06A40F01000A06234
:100B4000012738466BE70000FDF7E1FFFE0E1FFFAF
:100B500010B586B0044600200290039004900590E2
:100B60002C492068884252D100BF2B48806940F44C
:100B70000070294988610846806900F4007001907E
:100B800000BF00BF00BF0846806940F004008861D4
:100B90000846806900F00400019000BF00BF00BF5C
:100BA0000846806940F0080088610846806900F0C6
:100BB0000800019000BF00BF1020029003200390A6
:100BC00002A9164800F0F0FA03200290039002A94F
:100BD000134800F0E9FA1348134908600020486000
:100BE0000021114881608021C160490001618900B4
:100BF0004161202181610021C16100F029FA08B121
:100C0000FFF74DFE00BF08482062446200BF06B0F7
:100C100010BD000000240140001002400008014007
:100C2000000C014008000240B40000202DE9F04112
:100C300004460D461646002757492068884203D0CF
:100C400056492068884205D15348001D006800F4C9
:100C5000702000E0002000287ED100BF94F824001E
:100C6000012802D10220BDE8F081012084F824008F
:100C700000BF2046FFF7DEFB0746002F6DD1A06ABC
:100C800040F60161884340F48070A06243492068C7
:100C9000884209D14048001D006800F4702008B95E
:100CA000012002E0002000E0012078B1A06A20F4D9
:100CB0008010A0622068406800F4806000B3A06AE1
:100CC00020F4005040F48050A06219E0A06A40F483
:100CD0008010A06230492068884203D02F492068E4
:100CE000884205D12C48001D006800F4806000E0B7
:100CF000002028B1A06A20F4005040F48050A06287
:100D0000A06A00F4805020B1E06A20F00600E062A2
:100D100001E00020E06200BF002084F8240000BF52
:100D20001F48216A88621F48216AC8621E48216ADA
:100D300008636FF00200216808602068806840F452
:100D4000807021688860226802F14C0133462A468F
:100D5000206A00F0B1F901E01AE014E02068806830
:100D600000F46020B0F5602F06D12068806840F460
:100D7000A000216888600CE02068806840F4801042
:100D80002168886005E000BF002084F8240000E0AE
:100D90000127384667E70000002401400028014091
:100DA000B7030008270400080904000801460022D0
:100DB00091F82100022808D00420886300BF002099
:100DC00081F8200000BF012070470868006820F00B
:100DD0000E000B6818600868006820F001000B68BE
:100DE000186091F8403001209840CB6B586001208A
:100DF00081F8210000BF002081F8200000BF1046CC
:100E0000E2E7000070B50446002594F821000228AE
:100E100003D00420A063012548E02068006820F08A
:100E20000E00216808602068006820F00100216839
:100E300008601F492068884201D1012026E01C4932
:100E400014312068884201D110201FE01849283150
:100E50002068884201D1801518E015493C3120688E
:100E6000884201D1801411E0114950312068884234
:100E700002D14FF4803009E00D4964312068884286
:100E800002D14FF4801001E04FF08070084908391A
:100E90004860012084F8210000BF002084F8200071
:100EA00000BF606B10B12046616B8847284670BD5B
:100EB0000800024070B50446E06B056820680668CB
:100EC00094F84010042088402840002846D006F0BE
:100ED0000400002842D02068006800F0200028B9F3
:100EE0002068006820F004002168086057492068E5
:100EF000884201D1042027E05449143120688842F7
:100F000001D1402020E0514928312068884201D198
:100F1000001519E04D493C312068884202D14FF458
:100F2000804011E0494950312068884202D14FF495
:100F3000802009E0454964312068884202D14FF49D
:100F4000800001E04FF08060404908394860E06A65
:100F500000287AD02046E16A884776E094F840106D
:100F6000022088402840A0B306F0020088B3206821
:100F7000006800F0200040B92068006820F00A00F6
:100F800021680860012084F82100304920688842E7
:100F900001D1022028E02D4914312068884201D176
:100FA000202021E0294928312068884201D14015BC
:100FB0001AE026493C312068884202D14FF40050A3
:100FC00012E0224950312068884203D14FF40030AA
:100FD0000AE017E01D4964312068884202D14FF4CD
:100FE000001001E04FF0007018490839486000BF58
:100FF000002084F8200000BFA06A30B32046A16A18
:10100000884722E094F84010082088402840E0B14A
:1010100006F00800C8B12068006820F00E002168C2
:10102000086094F8401001208840E16B486001207E
:10103000A06384F8210000BF002084F8200000BFD6
:10104000206B10B12046216B884770BD080002401C
:101050000146002209B901207047164B0868C01AE2
:101060001423B0FBF3F08000086412480838C8630A
:10107000022081F821000868026843F6F07082437C
:10108000D1E901031843CB6818430B6918434B6936
:1010900018438B691843CB69184302430868026000
:1010A00000208863012081F82100002081F82000C1
:1010B00000BFD1E7080002402DE9F04104460D468B
:1010C00016461F464FF0000800BF94F82000012884
:1010D00002D10220BDE8F081012084F8200000BF89
:1010E00094F8210001282CD1022084F8210000204E
:1010F000A0632068006820F00100216808603B467A
:10110000324629462046FFF7ADFBE06A30B1206841
:10111000006840F00E00216808600BE0206800685D
:1011200020F00400216808602068006840F00A0090
:10113000216808602068006840F0010021680860AC
:1011400006E000BF002084F8200000BF4FF0020836
:101150004046BFE770B5044600F0BCF90646254698
:10116000681C10B104480078054400BF00F0B2F9D3
:10117000801BA842FAD370BD0800002010B50446B9
:10118000B4F5805F01D101F06FFE10BD10B50446CB
:1011900004480068204020B1024804602046FFF760
:1011A000EDFF10BD140401402DE9F847034600226D
:1011B00094466EE14FF0010808FA02F4D1F800807D
:1011C00008EA0400A0427DD1DFF8DCA2D1F8048057
:1011D000A8EB0A09D0453AD014DCB8F1030F50D07F
:1011E00009DCB8F1000F31D0B8F1010F1CD0B8F113
:1011F000020F49D120E0B8F1110F18D0B8F1120F49
:1012000042D11EE0B9F5881F25D006DCB9F5803F34
:1012100020D0B9F5801F37D11AE0B9F5001F18D0DA
:10122000B9F5041F30D117E0D1F80CC02DE0D1F88A
:101230000C8008F1040C28E0D1F80C8008F1080CAF
:1012400023E0D1F80C8008F10C0C1EE000BF00BFB9
:1012500000BF00BF00BF00BFD1F80880B8F1000F89
:1012600002D14FF0040C0BE0D1F80880B8F1010F67
:1012700003D14FF0080C1C6102E04FF0080C5C61D8
:1012800003E04FF0000C00E000BF00BFFF2801D8D2
:10129000984601E003F104084646FF2802D84FEAC9
:1012A000820803E0A2F108084FEA88084746D6F80A
:1012B00000804FF00F0909FA07F928EA09080CFA2B
:1012C00007F900E088E048EA0908C6F80080D1F88C
:1012D000048008F08058B8F1805F7DD100BFDFF84E
:1012E000CC81D8F8188048F00108DFF8C091C9F81F
:1012F0001880C846D8F8188008F00108CDF800809A
:1013000000BF00BF4FEAB9384FEA920958F8295098
:101310004FEA82784FEA18794FF00F0808FA09F877
:1013200025EA0805DFF88881434502D14FF000081F
:1013300016E0DFF88081434502D14FF001080FE04D
:10134000DFF87481434502D14FF0020808E0DFF86E
:101350006C81434502D14FF0030801E04FF00408CF
:101360004FEA82794FEA197908FA09F848EA05053F
:10137000DFF84C814FEA920948F82950D1F80480EF
:1013800008F48018B8F5801F0AD1DFF83881D8F842
:10139000008048EA0008DFF82C91C9F8008009E0D5
:1013A000DFF82081D8F8008028EA0008DFF81491DF
:1013B000C9F80080D1F8048008F40018B8F5001FBF
:1013C00010D1DFF8008108F10408D8F8008048EA5D
:1013D0000008DFF8F09000E05AE009F10409C9F8CC
:1013E00000800DE0DFF8DC8008F10408D8F8008008
:1013F00028EA0008DFF8CC9009F10409C9F8008058
:10140000D1F8048008F40038B8F5003F0ED1DFF8B9
:10141000B480A8F10408D8F8008048EA0008DFF892
:10142000A490A9F10409C9F800800DE0DFF89480C8
:10143000A8F10408D8F8008028EA0008DFF88490B2
:10144000A9F10409C9F80080D1F8048008F48038B3
:10145000B8F5803F0ED1DFF86C80A8F10808D8F805
:10146000008048EA0008DFF85C90A9F10809C9F893
:1014700000800DE0DFF84C80A8F10808D8F8008063
:1014800028EA0008DFF83C90A9F10809C9F80080B3
:10149000521CD1F8008028FA02F8B8F1000F7FF44E
:1014A00089AEBDE8F887000000001110001002406E
:1014B00000080140000C01400010014000140140F0
:1014C00008000140080401400AB1016101E00B0479
:1014D0000361704701480068704700000000002069
:1014E00070B504460CB9012070BD4CF6CC402168A3
:1014F000086045F2555021680860D4E90010486042
:101500002168A0688860FFF7E5FF05460DE0FFF75A
:10151000E1FF401B41F23C31884206D92068C06897
:1015200000F0030008B10320DEE72068C06800F087
:1015300003000028EBD14AF6AA20216808600020A9
:10154000D2E701464AF6AA200A68106000207047D8
:101550000348006803490978084401490860704756
:10156000000000200800002010B50848006840F086
:10157000100006490860032000F0A8F80F2000F0D2
:1015800007F800F02BF8002010BD000000200240FA
:1015900070B504460E4800784FF47A71B1FBF0F054
:1015A0000C490968B1FBF0F5284600F091FC08B140
:1015B000012070BD102C07D200222146501E00F0E1
:1015C00047F80548046001E00120F2E70020F0E759
:1015D000080000200C0000200400002008B500BF17
:1015E0001148806940F001000F4988610846806910
:1015F00000F00100009000BF00BF00BF0846C069B6
:1016000040F08050C8610846C06900F080500090EA
:1016100000BF00BF00BF0549486820F0E06040F00F
:101620000070486000BF08BD00100240000001408B
:1016300001460846002809DB00F01F0301229A40FA
:1016400043099B0003F1E023C3F8002100BF70476A
:101650002DE9F05F80460D461646002702F0E8FCB3
:10166000074639462A46334601F00700C0F1070A0B
:10167000BAF1040F02D94FF0040A01E0C0F1070AE1
:10168000D14600F1040ABAF1070F02D24FF0000A66
:1016900001E0A0F1030AD4464FF0010A0AFA09FA60
:1016A000AAF1010A0AEA020A0AFA0CFA4FF0010B3F
:1016B0000BFA0CFBABF1010B0BEA030B4AEA0B0430
:1016C0002146404602F0BCFCBDE8F09F00BF00F0A0
:1016D0000702064B19684FF6FF031940044B0B43F2
:1016E00043EA0221014B196000BF70470CED00E096
:1016F0000000FA05F8B5044600260025207800F021
:10170000010000286BD000274348C06900F08050DA
:1017100070B900BF4048C06940F080503E49C86180
:101720000846C06900F08050009000BF00BF01274C
:101730003A48006800F48070B0B93848006840F456
:10174000807036490860FFF7C5FE064606E0FFF7E1
:10175000C1FE801B642801D90320F8BD2F48006812
:1017600000F480700028F2D02B48006A00F4407525
:101770002DB3A08800F44070A84220D02648006A0B
:1017800020F44075012026490860002008602248A6
:10179000056205F0010090B1FFF79CFE064608E0E7
:1017A000FFF798FE801B41F28831884201D903205F
:1017B000D3E71948006A00F002000028F0D016486C
:1017C000006A20F440706168084313490862012FE1
:1017D00004D10846C06920F08050C86100BF20785D
:1017E00000F00200022807D10B48406820F4404076
:1017F000A168084308494860207800F010001028CC
:1018000007D10548406820F48000E1680843024998
:1018100048600020A1E70000001002400070004076
:101820004004424270B504460D460CB9012070BD1B
:101830005A48006800F00700A8420ED257480068D6
:1018400020F007002843554908600846006800F06A
:101850000700A84201D00120E9E7207800F002004B
:1018600002281DD1207800F00400042805D14C483E
:10187000406840F4E0604A494860207800F0080081
:10188000082805D14648406840F460504449486003
:101890004348406820F0F000A16808434049486090
:1018A000207800F0010078B36068012806D13C4838
:1018B000006800F4003090B90120B8E760680228A1
:1018C00006D13748006800F0007040B90120AEE74B
:1018D0003348006800F0020008B90120A7E730484B
:1018E000406820F00300616808432D494860FFF715
:1018F000F1FD064609E0FFF7EDFD801B41F288315E
:10190000884202D9032092E707E02548406800F0AA
:101910000C006168B0EB810FEDD12048006800F049
:101920000700A8420ED91D48006820F00700284390
:101930001A4908600846006800F00700A84201D074
:10194000012074E7207800F00400042807D114482F
:10195000406820F4E060E16808431149486020785D
:1019600000F00800082808D10D48406820F46050B5
:10197000216940EAC1000A49486000F03FF808497F
:101980004968C1F30311074A515CC8400649086021
:1019900006480068FFF7FCFD002048E700200240F1
:1019A00000100240064F00080C0000200400002038
:1019B00001480068704700000C00002000B5FFF7E8
:1019C000F7FF04494968C1F30221034A515CC8404A
:1019D00000BD000000100240164F000800B5FFF7E0
:1019E000E7FF04494968C1F3C221034A515CC8407A
:1019F00000BD000000100240164F000870B5002125
:101A00000022002400230020134D696801F00C051A
:101A1000F5B1042D02D0082D19D101E00F4819E0CD
:101A20000F4DC1F38346AB5D01F4803555B10A4DCE
:101A30006D68C5F340450B4E725D084D5D43B5FBC7
:101A4000F2F402E0084D03FB05F4204602E000BF7B
:101A5000024800BF00BF70BD0010024000127A00B3
:101A6000F44E0008044F000800093D00F8B5044694
:101A70000CB90120F8BD207800F00100002878D0D2
:101A8000F848406800F00C0004280CD0F548406885
:101A900000F00C00082811D1F248406800F48030B2
:101AA000B0F5803F0AD1EF48006800F4003000280C
:101AB0005FD0606800285CD10120DBE700BF606870
:101AC000B0F5803F06D1E748006840F48030E54932
:101AD000086028E0606858B9E248006820F4803067
:101AE000E04908600846006820F4802008601AE099
:101AF0006068B0F5A02F0BD1DA48006840F4802070
:101B0000D84908600846006840F4803008600AE060
:101B1000D448006820F48030D24908600846006844
:101B200020F48020086000BF606888B1FFF7D2FC15
:101B3000054606E0FFF7CEFC401B642801D90320D0
:101B400098E7C848006800F400300028F2D010E0A0
:101B5000FFF7C0FC054606E0FFF7BCFC401B64280D
:101B600001D9032086E7BF48006800F40030002850
:101B7000F2D1207800F00200022857D1B94840681D
:101B800000F00C0050B1B748406800F00C00082885
:101B900018D1B448406800F4803098B9B148006862
:101BA00000F0020020B12069012801D0012061E786
:101BB000AC48006820F0F800616940EAC100A9491A
:101BC000086033E02069E8B10120A7490860FFF709
:101BD00081FC054606E0FFF77DFC401B022801D989
:101BE000032047E79F48006800F002000028F2D079
:101BF0009C48006820F0F800616940EAC1009949FA
:101C0000086013E0002098490860FFF763FC054670
:101C100006E0FFF75FFC401B022801D9032029E7FB
:101C20009048006800F002000028F2D1207800F00F
:101C3000080008282DD1A069B8B101208B4908609F
:101C4000FFF748FC054606E0FFF744FC401B02286E
:101C500001D903200EE78348406A00F00200002803
:101C6000F2D0012001F02CFD13E000207F49086034
:101C7000FFF730FC054606E0FFF72CFC401B02286E
:101C800001D90320F6E67748406A00F002000028F8
:101C9000F2D1207800F00400042873D100277148A5
:101CA000C06900F0805070B900BF6E48C06940F054
:101CB00080506C49C8610846C06900F080500090AF
:101CC00000BF00BF01276A48006800F48070B0B907
:101CD0006748006840F4807065490860FFF7FAFBC8
:101CE000054606E0FFF7F6FB401B642801D90320F8
:101CF000C0E65F48006800F480700028F2D000BFA2
:101D0000E068012806D15748006A40F001005549B3
:101D1000086227E0E06858B95248006A20F00100E4
:101D2000504908620846006A20F00400086219E081
:101D3000E06805280BD14B48006A40F0040049498F
:101D400008620846006A40F0010008620AE045485F
:101D5000006A20F00100434908620846006A20F04A
:101D60000400086200BFE068A0B1FFF7B3FB0546BE
:101D700009E0FFF7AFFB401B41F28831884202D9EE
:101D8000032077E622E03748006A00F002000028CE
:101D9000EFD012E0FFF79EFB054608E0FFF79AFB45
:101DA000401B41F28831884201D9032062E62D4868
:101DB000006A00F002000028F0D1012F05D1294867
:101DC000C06920F080502749C86100BFE069C8B3EE
:101DD0002448406800F00C00082860D0E069022820
:101DE00048D1002020490866FFF774FB054606E04D
:101DF000FFF770FB401B022801D903203AE619487F
:101E0000006800F000700028F2D1206AB0F5803F31
:101E100007D11448406820F40030A16808431149F4
:101E20004860D4E9080108430E49496821F4741157
:101E300008430C49486001200B490866FFF74AFB3C
:101E4000054607E03DE0FFF745FB401B022801D9AE
:101E500003200FE60348006800F000700028F2D06D
:101E60002FE0000000100240000042428004424285
:101E700000700040002014490866FFF72BFB054660
:101E800006E0FFF727FB401B022801D90320F1E5FC
:101E90000E48006800F000700028F2D111E0E069FF
:101EA000012800D1E6E50948466806F48031206A39
:101EB000814204D106F47011606A814201D0012090
:101EC000D8E50020D6E500000000424200100240A4
:101ED00070B504462546681EB0F1807F01D301200D
:101EE0000FE0681E4FF0E02148610F214FF0FF30F6
:101EF00002F0A6F800204FF0E02188610720086179
:101F0000002070BD10B50346002200BF93F83C00CE
:101F1000012801D1022010BD012083F83C0000BF40
:101F200022F0FF00CC6840EA040222F440708C6882
:101F300040EA040222F480604C6840EA040222F481
:101F400000600C6840EA040222F480500C6940EA08
:101F5000040222F400504C6940EA040222F480405A
:101F6000CC6940EA04021868426400BF002083F88C
:101F70003C0000BF00BFCEE730B502460B4600BFB5
:101F800092F83C00012801D1022030BD012082F8E6
:101F90003C0000BF022082F83D00106844681068D1
:101FA000816824F070041868044310684460104D80
:101FB0001068A8420BD01068B0F1804F07D00D4DCB
:101FC0001068A84203D00C4D1068A84205D121F03A
:101FD00080015868014310688160012082F83D004B
:101FE00000BF002082F83C0000BF00BFCDE700002A
:101FF000002C0140000400400008004010B50446D9
:102000000CB9012010BD94F83D0028B9002084F8D7
:102010003C00204600F026F8022084F83D00211DF7
:10202000206801F0ABFB012084F8460000BF84F873
:102030003E0001213F20015540200155412001551E
:1020400000BF00BF012084F8420043200155442016
:1020500001554520015500BF012084F83D000020B6
:10206000D0E7000008B5094A016891420DD100BFD0
:102070000749896941F40061054A916111468969FE
:1020800001F40061009100BF00BF08BD002C0140B9
:10209000001002402DE9F04104460D46002700BF24
:1020A00094F83C00012802D10220BDE8F081012013
:1020B00084F83C0000BF022084F83D002068866858
:1020C00026F0770626F47F46206886602868502828
:1020D00033D00CDC202850D004DC00284BD0102852
:1020E00051D149E0302849D040284CD139E060280E
:1020F0002DD0702807D0B0F5805F03D0B0F5005F19
:1021000041D10DE041E0D5E902136A68206801F091
:1021100088FB2068866846F077062068866034E091
:10212000D5E902136A68206801F07BFB20688068AB
:1021300040F480402168886027E0EA686968206888
:1021400001F040FC5021206801F076FB1DE0EA68B8
:102150006968206801F049FC6021206801F06CFB8F
:1021600013E0EA686968206801F02CFC40212068CF
:1021700001F062FB09E000BF00BF00BF29682068D2
:1021800001F05AFB01E0012700BF00BF012084F8E5
:102190003D0000BF002084F83C0000BF384684E7C3
:1021A0002DE9F04104460D4614B90120BDE8F08147
:1021B00094F83D0028B9002084F83C00204600F047
:1021C00051F8022084F83D002068806844F207013D
:1021D000884321688860211D206801F0CFFA2068BB
:1021E000D0F80880206886692068076A286840EA75
:1021F000080840F203308643A969A86840EA012034
:10220000064340F60C4086434FF2F0008643E969EE
:10221000E86840EA0120064328690001296A40EA8B
:102220000130064327F022076969686840EA011017
:1022300007432068C0F8088020688661206807622C
:10224000012084F8460084F83E0001213F2001551A
:10225000012084F8420043200155012084F83D000C
:102260000020A3E710B586B004460020029003903A
:10227000049005902068B0F1804F23D100BF124830
:10228000C06940F001001049C8610846C06900F00B
:102290000100019000BF00BF00BF0846806940F008
:1022A000040088610846806900F00400019000BFC6
:1022B00000BF0320029000200390049002A903486D
:1022C000FEF772FF06B010BD00100240000801408A
:1022D0002DE9F04304460D4694F83E603F20075D2B
:1022E00094F84280432010F804906DB9012E02D179
:1022F000B8F1010F02D00120BDE8F083022084F87C
:102300003E0084F8420025E0042D0CD1012F02D1BB
:10231000B9F1010F01D00120EEE702213F20015564
:102320004320015516E0012E07D1012F05D1B8F148
:10233000010F02D1B9F1010F01D00120DCE7022029
:1023400084F83E0002213F200155022084F842001B
:102350004320015515B1042D0CD105E001220021C7
:10236000206801F04DFA10E001220421206801F0FC
:1023700047FA0AE001220021206801F041FA012217
:102380000421206801F03CFA00BF00BF206800680B
:1023900040F00100216808600020ADE710B586B06C
:1023A0000446002002900390049005901C49206888
:1023B000884217D100BF1B48806940F004001949CA
:1023C00088610846806900F00400019000BF00BFEA
:1023D0008815029002200390059002A91248FEF78A
:1023E000E3FE1AE011492068884216D100BF0D486B
:1023F000806940F004000B4988610846806900F05C
:102400000400019000BF00BF402002900220039012
:10241000059002A90448FEF7C7FE06B010BD0000F3
:10242000002C014000100240000801400004004060
:102430002DE9F04104460D461646002700BF94F8EA
:102440003C00012802D10220BDE8F081012084F87F
:102450003C0000BF36B1042E1BD0082E31D00C2E0C
:102460005ED145E02946206801F0F0F920688069D6
:1024700040F00800216888612068806920F004002D
:10248000216888612068806929690843216888611A
:1024900048E02946206801F009FA2068806940F484
:1024A0000060216888612068806920F4806021686C
:1024B000886120688069296940EA01202168886173
:1024C00030E02946206801F025FA2068C06940F014
:1024D00008002168C8612068C06920F004002168F4
:1024E000C8612068C069296908432168C86119E08A
:1024F0002946206801F042FA2068C06940F4006073
:102500002168C8612068C06920F480602168C861C2
:102510002068C069296940EA01202168C86101E09A
:10252000012700BF00BF00BF002084F83C0000BFAF
:10253000384689E710B504460CB9012010BD94F85F
:102540003D0028B9002084F83C00204600F026F821
:10255000022084F83D00211D206801F00FF90120C0
:1025600084F8460000BF84F83E0001213F20015559
:10257000402001554120015500BF00BF012084F8D3
:10258000420043200155442001554520015500BF1C
:10259000012084F83D000020D0E7000008B5094A7A
:1025A000016891420DD100BF0749C96941F002019C
:1025B000054AD1611146C96901F00201009100BFCD
:1025C00000BF08BD000400400010024070B5044682
:1025D0000D4615B994F83E000BE0042D02D13F20C2
:1025E000005D06E0082D02D14020005D01E04120A1
:1025F000005D012801D0012070BD1DB9022084F8C2
:102600003E000EE0042D03D102213F20015508E0D9
:10261000082D03D102214020015502E00221412072
:10262000015501222946206801F0EAF8194920687D
:10263000884201D1012000E0002028B12068406CD0
:1026400040F40040216848641249206888420BD059
:102650002068B0F1804F07D00F492068884203D02E
:102660000E49206888420CD12068806800F0070677
:10267000062E0CD02068006840F001002168086038
:1026800005E02068006840F0010021680860002033
:10269000B2E70000002C01400004004000080040A8
:1026A000F8B504460D46164694F8420020282DD170
:1026B00005B10EB90120F8BD012020630020606340
:1026C00032462946204601F097FB0746206B012839
:1026D00019D100BF00200090206800680090206899
:1026E0004068009000BF00BF00BF00BF21680C31F0
:1026F00051E8001F41F0100021680C3141E8000250
:10270000002AF3D100E001273846D4E70220D2E7BF
:1027100070B505460C4608492868884200D070BD4F
:1027200006480480012006490870402205490648F1
:10273000FFF7B6FF00BFF2E700440040360000207C
:10274000340000200C0300202402002038B5044689
:102750002A492068884226D100BF002000902068C6
:102760000068009020684068009000BF00BF00BF74
:102770000020009020680068009020684068009069
:1027800000BF00BF00BF00200090206800680090DC
:1027900020684068009000BF00BF01221849194816
:1027A00000F08CFA29E018492068884225D100BF42
:1027B0000020009020680068009020684068009029
:1027C00000BF00BF00BF002000902068006800909C
:1027D00020684068009000BF00BF00BF002000904C
:1027E00020680068009020684068009000BF00BF2B
:1027F000402206490648FFF753FF38BD0038014024
:102800003C000020DC010020004400400C030020BC
:10281000240200202DE9F84F04462068056820684E
:10282000C668206847694FF00009CA4605F00F09DD
:10283000B9F1000F0AD105F0200038B106F02000F0
:1028400020B1204601F0DCF9BDE8F88FB9F1000FA6
:102850007BD007F0010018B906F49070002874D0FE
:1028600005F0010030B106F4807018B1606C40F0E2
:102870000100606405F0040030B107F0010018B1F8
:10288000606C40F00200606405F0020030B107F0B7
:10289000010018B1606C40F00400606405F00800AD
:1028A00048B106F0200010B907F0010018B1606CC3
:1028B00040F008006064606C002845D005F02000FE
:1028C00028B106F0200010B1204601F099F92068E7
:1028D0004069C0F3801A606C00F0080010B9BAF1CA
:1028E000000F2CD0204601F032F92068406900F03A
:1028F000400000B300BF00BF2168143151E8001F41
:1029000021F040002168143141E80002002AF3D18F
:1029100000BFE06B50B17748E16B4863E06BFEF7B6
:1029200071FA88B1E06B416B88470DE02046FFF7F4
:102930000DFF09E009E02046FFF708FF04E020460C
:10294000FFF704FF002060647EE7206B012877D149
:1029500005F01000002873D006F010000028FAD00F
:1029600000BF002000902068006800902068406848
:10297000009000BF00BF2068406900F040000028C0
:102980005FD0E06B006840681FFA80F8B8F1000F74
:1029900055D0A08D404552DDA4F82E80E06B8069B3
:1029A000202843D000BF00BF21680C3151E8001F30
:1029B00021F4807021680C3141E80002002AF3D133
:1029C00000BF00BF00BF2168143151E8001F21F093
:1029D00001002168143141E80002002AF3D100BF50
:1029E00000BF00BF2168143151E8001F21F04000F2
:1029F0002168143141E80002002AF3D100BF2020F1
:102A000084F842000020206300BF00BF21680C3121
:102A100051E8001F21F0100021680C3141E800024C
:102A2000002AF3D100BFE06BFEF7C0F9022060631B
:102A3000A08DE28D801A81B22046FFF769FE03E780
:102A400042E0A08DE18D401A1FFA80F8E08DD0B3EE
:102A5000B8F1000F37D000BF00BF21680C3151E83A
:102A6000001F21F4907021680C3141E80002002A17
:102A7000F3D100BF00BF00BF2168143151E8001F2F
:102A800021F001002168143141E80002002AF3D14D
:102A900000BF202084F842000020206300BF00BF58
:102AA00021680C3151E8001F21F0100021680C3121
:102AB00041E80002002AF3D100BF022060634146D2
:102AC0002046FFF725FEBFE605F0800030B106F096
:102AD000800018B1204601F013FAB5E605F0400079
:102AE00030B106F0400018B1204601F066F8ABE6C0
:102AF00000BFA9E6133A000810B504460CB901203E
:102B000010BDA06900B100E000BF94F8410028B9F1
:102B1000002084F84000204600F02AF8242084F8A1
:102B200041002068C06820F400502168C860204639
:102B300001F0E4F82068006920F490402168086101
:102B40002068406920F02A00216848612068C06838
:102B500040F400502168C86000206064202084F8A0
:102B6000410084F842000020606300BFC8E7000015
:102B700010B586B0044600200290039004900590A2
:102B800048492068884237D100BF4748806940F4EF
:102B90008040454988610846806900F48040019082
:102BA00000BF00BF00BF0846806940F00400886194
:102BB0000846806900F00400019000BF00BF48157E
:102BC0000290022003900320059002A93748FEF7E7
:102BD000EBFA4FF48060029000200390049002A969
:102BE0003248FEF7E1FA002211462520FEF730FDBB
:102BF0002520FEF71DFD52E02D49206888424ED168
:102C000000BF2948C06940F400302749C861084620
:102C1000C06900F40030019000BF00BF00BF08464B
:102C2000806940F0040088610846806900F0040073
:102C3000019000BF00BF04200290022003900320F7
:102C4000059002A91948FEF7AFFA0820029000206B
:102C50000390049002A91548FEF7A6FA15481649F4
:102C60000860002048600021134881608021C16015
:102C70000021016141618161C161FEF7E9F908B19B
:102C8000FDF70DFE00BF0C48E063446200BF002268
:102C900011462620FEF7DCFC2620FEF7C9FC06B014
:102CA00010BD000000380140001002400008014043
:102CB000004400406C0002406C02002070B50446E5
:102CC0000D46164694F8420020280BD105B10EB9E6
:102CD000012070BD0020206332462946204601F0C5
:102CE000EFF8F6E70220F4E710B50446064920683D
:102CF000884208D105480078FDF780FC012203498D
:102D00000348FFF7DBFF10BD003801403C00002006
:102D1000DC01002070472DE9F84F04460E461746A7
:102D200099464FF0000A94F84100202850D106B18E
:102D300017B90120BDE8F88F00206064212084F8D5
:102D40004100FEF7C7FB8246A784E784A068B0F580
:102D5000805F04D1206910B90025B04602E03546F5
:102D60004FF000081EE05346002280212046CDF897
:102D7000009001F0F5F820B1202084F841000320F4
:102D8000D8E745B9B8F80000C0F3080021684860EA
:102D900008F1020803E02878216848606D1CE08C87
:102DA000401EE084E08C0028DDD153460022402103
:102DB0002046CDF8009001F0D3F820B1202084F80F
:102DC00041000320B6E7202084F841000020B1E74D
:102DD0000220AFE7704700BFFEE70000014800880F
:102DE000704700004E000020014800887047000036
:102DF0005000002010B514211348FDF7AAF9002057
:102E00001249087012490880FEF764FB11490860F6
:102E1000002201212620FEF71BFC2620FEF708FCDD
:102E2000002201211020FEF713FC1020FEF700FC09
:102E3000402209490948FFF733FC012208490948A3
:102E4000FFF73CFF10BD00004C03002034000020C1
:102E500036000020380000200C030020240200204F
:102E60003C000020DC01002070B5FEF733FB044677
:102E7000B4F57A7F00D270BD11480068201AB0F511
:102E8000FA7F00D2F7E70E4804600E480088401C25
:102E90000C4908800C48007880B90120FDF7C4FB7C
:102EA00005460A480088854201DD012000E0022035
:102EB0000749087001200749087000BF00BFDAE722
:102EC0005C00002048000020540000204E0000203C
:102ED0005300002052000020012805D1064909882E
:102EE000491C054A118006E0022804D103490988DB
:102EF000491C024A118070474A0000204C00002003
:102F00002DE9F043C3B0FEF7E5FA0546AF48007877
:102F100068B30020AD490870AD480088FF2802DC86
:102F2000AB48008801E04FF480700646042E1DDB9C
:102F30003146A84801F022FCC0B1A7480560A74867
:102F4000A74901221302CDE90021029003AA3146CC
:102F5000A04801F048FC8046B8F1000F05D064237A
:102F6000424603A99F48FFF7D6FE00BF00BF9E4818
:102F7000007870B19D480088002801DD012000E044
:102F80000020014699480088FDF7F2FA0020964992
:102F900008709748007838B39648007800F0010030
:102FA00038B101209449087001214FF4C870FDF731
:102FB000DFFA9048007800F0020030B100208E491E
:102FC000087000210846FDF7D3FA8A48007800F01F
:102FD000040030B100208849087088490880FDF756
:102FE00071FA00208249087085480068281A322842
:102FF00058D3FDF767FB824805600020FDF714FBFE
:1030000006460120FDF710FB81460220FDF70CFB70
:10301000804608227B49304601F046FF7A48007816
:1030200038B940F2DC50864203D20120764908705C
:1030300009E07548007830B140F27260864202D9EA
:103040000020714908707048007880B16B48008892
:1030500040F00200694908806748007868B10020A4
:103060006549087000210846FDF782FA05E06348CB
:10307000008820F002006149088010226349484618
:1030800001F012FF20226249404601F00DFF614825
:10309000007830B160480088804502DD01205F493A
:1030A000087000BF5E480068406B5E4948804A482F
:1030B0000068281AB0F5FA6F01D3012000E0002063
:1030C00007464FB14C48007830B100204A4908709B
:1030D00000210846FDF74CFA5348007890B14D485E
:1030E000007878B9002050490870012049490870DB
:1030F0004E4805600020494908704D480078FDF7AA
:1031000089FB1CE043480078C8B148480068281A89
:10311000B0F5167F13D30020FDF77CFB4448007800
:10312000FFF7DAFE3D48007808B1102000E02020CB
:103130004049087000203949087036490870002459
:103140002D48007808B144F001042C48008808B1EB
:1031500044F002043848007810B92E48007808B1CD
:1031600044F004040FB144F008043248007810B170
:103170003048007804432B488480304800880F286A
:1031800006D01E48008840F040001C49088005E039
:103190001A48008820F04000184908801748008825
:1031A0002049C88025480088488225480088088131
:1031B0000220FDF739FA1B4988810120FDF734FA16
:1031C0001849C88143B0BDE8F083000034000020F6
:1031D000360000200C030020380000202D4A000893
:1031E000154A0008240200203D0000203E00002077
:1031F0004000002042000020440000204600002043
:1032000064000020680000206000002069000020A9
:103210006A000020540000205000002061000020BF
:10322000040100204C030020520000205800002020
:103230005300002062000020450000206C000020A8
:103240004800002001490880704700006C00002001
:1032500001490880704700004E00002001490880A5
:1032600070470000500000200EB500200090019033
:1032700002901E481E49086081151D488160012189
:103280000173002101754FF46021C16100201849CC
:103290004860032116480161FDF7B8FB08B1FDF74E
:1032A000FEFA042000900120019007200290694658
:1032B0000F48FDF7F7FA08B1FDF7F1FA0820009082
:1032C0000220019069460A48FDF7ECFA08B1FDF7C3
:1032D000E6FA092000900320019069460448FDF7B2
:1032E000E1FA08B1FDF7DBFA0EBD00000024014051
:1032F0008400002008B500BF0E48406940F001007E
:103300000C4948610846406900F00100009000BF88
:1033100000BF002211460B20FEF79AF90B20FEF7A2
:1033200087F9002211461020FEF792F91020FEF7CF
:103330007FF908BD0010024000B585B00020019063
:1033400002900390049000BF2C48806940F0100068
:103350002A4988610846806900F01000009000BF8B
:1033600000BF00BF0846806940F020008861084621
:10337000806900F02000009000BF00BF00BF084639
:10338000806940F0040088610846806900F004000C
:10339000009000BF00BF00BF0846806940F00800F1
:1033A00088610846806900F00800009000BF00BFF7
:1033B000002278211248FEF787F84FF480500190E0
:1033C000104802900120039001A90F48FDF7ECFE80
:1033D00078200190012002900020039003200490A7
:1033E00001A90748FDF7E0FE002211462820FEF75C
:1033F0002FF92820FEF71CF905B000BD001002408F
:10340000000C0140000021100008014010B50748E1
:103410000749086006204860FA2105488160FEF7E8
:103420005FF808B1FDF73BFA10BD00000030004026
:10343000F800002000B595B0002011901290139074
:1034400014900F9010901C2108A8FCF782FE2021F8
:103450006846FCF77EFE2B482B49086047204860F1
:1034600000212948816040F2E731C16000210161FB
:10347000416180218161FEF7C1FD08B1FDF70FFABE
:103480004FF48050119011A91F48FEF703FE08B1B8
:10349000FDF705FA1C48FFF74DF808B1FDF7FFF9F5
:1034A00000200F9010900FA91748FEF765FD08B196
:1034B000FDF7F5F960200890002009900A900B9024
:1034C0000C900D900E90002208A90F48FEF7B0FF57
:1034D00008B1FDF7E4F900200090019002900390FC
:1034E00004904FF40050059000200790694606486C
:1034F000FEF708FD08B1FDF7D2F90348FEF74EFFCD
:1035000015B000BD002C01400401002000B58BB0B7
:10351000242102A8FCF71DFE0020009001904FF02E
:1035200080401749086000204860002114488160ED
:103530004FF6FF71C160002101618161032002909B
:103540000020039001200490002005900690079031
:1035500001200890002009900A9002A90848FEF76F
:103560001FFE08B1FDF79BF900200090019069460D
:103570000348FEF701FD08B1FDF791F90BB000BD5E
:103580004C01002000B589B00020079008901C2154
:103590006846FCF7DEFD1948194908604720486075
:1035A00000211748816044F61F61C160002101615C
:1035B00080218161FEF7BEFF08B1FDF770F90020A0
:1035C0000790089007A90E48FEF7D6FC08B1FDF752
:1035D00066F96020009040F2DC50019000200290DB
:1035E0000490002269460648FEF722FF08B1FDF765
:1035F00056F90348FEF7D2FE09B000BD00040040B2
:103600009401002010B50B480B4908604FF4E130DD
:103610004860002108488160C16001610C2141615E
:1036200000218161C161FFF767FA08B1FDF737F941
:1036300010BD000000380140DC01002010B50B482F
:103640000B4908604FF4E130486000210848816070
:10365000C16001610C21416100218161C161FFF7FD
:103660004BFA08B1FDF71BF910BD00000044004003
:103670002402002000BFFEE700BFFEE7F0B505AC66
:10368000F0CC016042608360C4608563C6630764F8
:103690004FF0000CC0F810C0C0F814C0C0F818C03B
:1036A000C0F81CC0C0F820C0C0F824C0C0F828C0B2
:1036B000C0F82CC0C0F830C0C0F834C0F0BD7047AE
:1036C00008B508490968C9084FF47A72B1FBF2F1EC
:1036D0004143009100BF00BF00994A1E009200299B
:1036E000F9D108BD0C000020704710B5FDF730FF80
:1036F00010BD00B593B0282109A8FCF72AFD1421BC
:1037000004A8FCF726FD0020009001900290039091
:10371000092009904FF480300A9000200B9001207E
:103720000D900F9002201090C10311914FF4E01101
:10373000129109A8FEF79AF908B1FDF7B0F80F2029
:10374000049002200590002006904FF480600790BE
:1037500000200890022104A8FEF764F808B1FDF7E4
:103760009EF802200090800302906846FDF7C2FF99
:1037700008B1FDF794F813B000BD704710B50268AA
:103780001C4B984208D0B0F1804F05D01A4B98429C
:1037900002D01A4B984203D122F070024B681A43B0
:1037A000144B984208D0B0F1804F05D0124B98428C
:1037B00002D0124B984203D122F44072CB681A43D4
:1037C00022F080034C6943EA040202608B68C36202
:1037D0000B688362074B984201D10B690363012395
:1037E0004361036903F001031BB1036923F0010383
:1037F000036110BD002C014000040040000800409F
:1038000030B501F01F05012404FA05F3046A9C4356
:103810000462046A01F01F0502FA05F52C430462F4
:1038200030BD30B50C46816821F47F4142EA032562
:1038300025432943816030BD0A46816821F070012B
:1038400042F00703194381607047000030B5026AF7
:10385000056A25F0010505624368846924F0700457
:1038600024F003040D682C4322F002028D682A43E1
:103870000D4DA84206D100BF22F00802CD682A43B0
:1038800022F00402084DA84207D123F4807323F4E8
:1038900000734D692B438D692B43436084614D68F0
:1038A0004563026230BD0000002C014030B5026A61
:1038B000056A25F0100505624368846924F4E04434
:1038C00024F440740D6844EA052422F020028D6837
:1038D00042EA05120E4DA84207D100BF22F0800235
:1038E000CD6842EA051222F04002094DA84209D1F2
:1038F00023F4806323F400634D6943EA85038D69F3
:1039000043EA8503436084614D688563026230BD8C
:10391000002C014030B5026A056A25F48075056205
:103920004368C46924F0700424F003040D682C4338
:1039300022F400728D6842EA05220F4DA84207D199
:1039400000BF22F40062CD6842EA052222F48062C0
:10395000094DA84209D123F4805323F400534D6943
:1039600043EA05138D6943EA05134360C4614D685A
:10397000C563026230BD0000002C014030B5036A0F
:10398000056A25F4805505624468C26922F4E04264
:1039900022F440720D6842EA052223F400538D6838
:1039A00043EA0533064DA84204D124F480444D690E
:1039B00044EA85144460C2614D680564036230BD09
:1039C000002C014030B50B461446026A056A25F00A
:1039D00001050562816921F0F00141EA041122F03C
:1039E0000A021A438161026230BD30B50B461446AB
:1039F000026A056A25F010050562816921F47041AB
:103A000041EA043122F0A00242EA0312816102621B
:103A100030BD70B505466C6A0020E085E084204624
:103A2000FEF794FE70BD70B506460025746A2068E6
:103A30004069C0F3C01594F84100212805D125B193
:103A40000020E084204600F0C8F820684069C0F3F8
:103A5000801594F84200222805D125B10020E08588
:103A6000204600F074F8606C40F01000606420465E
:103A7000FEF76CFE70BD70B505466C6A286800687C
:103A800000F02000002842D1E08500BF00BF21687F
:103A90000C3151E8001F21F4807021680C3141E89D
:103AA0000002002AF3D100BF00BF00BF216814311B
:103AB00051E8001F21F001002168143141E80002A3
:103AC000002AF3D100BF00BF00BF2168143151E8C4
:103AD000001F21F040002168143141E80002002A53
:103AE000F3D100BF202084F84200206B01280ED1C2
:103AF00000BF00BF21680C3151E8001F21F0100009
:103B000021680C3141E80002002AF3D100BF0020F7
:103B10006063206B012804D1A18D2046FEF7F8FDDB
:103B200002E02046FFF7E0F870BD70B505466C6A0C
:103B300001206063206B012805D1A08D410820463B
:103B4000FEF7E6FD02E02046FFF7E4F870BD00BF97
:103B500000BF02680C3252E8002F22F49071026814
:103B60000C3242E80013002BF3D100BF00BF00BFAE
:103B70000268143252E8002F22F001010268143268
:103B800042E80013002BF3D100BF016B01290ED1D5
:103B900000BF00BF02680C3252E8002F22F0100173
:103BA00002680C3242E80013002BF3D100BF202141
:103BB00080F8421000210163704710B50446206868
:103BC000C06820F040002168C860202084F84100CF
:103BD0002046FFF7FFF8002010BD00BF00BF0268BD
:103BE0000C3252E8002F22F0C00102680C3242E889
:103BF0000013002BF3D100BF202180F84110704743
:103C0000F8B5044694F84200222875D1A068B0F5B2
:103C1000805F0CD1206950B90025A66A20684068F1
:103C2000C0F308003080A06A801CA06215E0A56A7D
:103C30000026A068B0F5805F03D0A06828B920698D
:103C400018B920684068287004E02068406800F0D7
:103C50007F002870A06A401CA062E08D401E80B2E8
:103C6000E085002846D12068C06820F02000216847
:103C7000C8602068C06820F480702168C86020682F
:103C8000406920F0010021684861202084F842004A
:103C900000206063206B012826D10020206300BF34
:103CA00000BF21680C3151E8001F21F0100021688D
:103CB0000C3141E80002002AF3D100BF20680068FF
:103CC00000F0100010280AD100BF002000902068EA
:103CD0000068009020684068009000BF00BFA18D80
:103CE0002046FEF715FD02E02046FEF7FDFF00200E
:103CF000F8BD01E00020FBE70220F9E770B50446BB
:103D00002168096921F44051E26811432268116178
:103D10002269A1681143626941EA02052168C96804
:103D200041F20C62914329432268D16021684969BC
:103D300021F44071A2691143226851612D4A216822
:103D4000914202D1FDF74AFE01E0FDF737FE00EB9C
:103D5000C00101EB001162689200B1FBF2F100EBCF
:103D6000C00202EB001263689B00B2FBF3F2642313
:103D7000B2FBF3F202EBC20303EB0212A1EB8201EE
:103D8000322202EB01116422B1FBF2F101F0F001E9
:103D900000EBC00202EB001263689B00B2FBF3F27F
:103DA0006423B2FBF3F201EB021200EBC00101EB62
:103DB000001163689B00B1FBF3F100EBC00303EB60
:103DC00000136668B600B3FBF6F36426B3FBF6F3A4
:103DD00003EBC30606EB0313A1EB8301322303EBD2
:103DE00001116423B1FBF3F101F00F0111442268CA
:103DF000916070BD0038014077B581B0044615462A
:103E00000298A062A58500206064222084F8420008
:103E10002848E16B88622848E16BC8622748E16B5B
:103E200008630020E16B486302AE32682368191D05
:103E30002B46E06BFDF740F900BF002000902068A2
:103E40000068009020684068009000BF00BF2069B3
:103E500070B100BF00BF21680C3151E8001F41F470
:103E6000807021680C3141E80002002AF3D100BFC4
:103E700000BF00BF2168143151E8001F41F001006C
:103E80002168143141E80002002AF3D100BF00BFCD
:103E900000BF2168143151E8001F41F04000216843
:103EA000143141E80002002AF3D100BF002004B021
:103EB00070BD0000773A00082B3B0008273A000845
:103EC00010B5034699629A85DA850020586422204D
:103ED00083F84200186928B11868C06840F48070FF
:103EE0001C68E0601868406940F001001C6860616F
:103EF0001868C06840F020001C68E060002010BD19
:103F0000014691F84100212828D18868B0F5805FEA
:103F10000BD1086948B90A6A1088C0F308000B6819
:103F20005860086A801C086205E00B6A581C086229
:103F300018780B685860C88C401E80B2C88458B985
:103F40000868C06820F080000B68D8600868C06806
:103F500040F040000B68D860002070470220FCE76A
:103F60002DE9F84304460D4617469846089E31E071
:103F7000701C70B3FDF7AEFAA0EB0800B04200D899
:103F800016B90320BDE8F8832068C06800F004007B
:103F9000F8B1802D1ED0402D1CD020680068C0F3E1
:103FA000C000B0B100BF0020009020680068009001
:103FB00020684068009000BF00BF2046FFF7C7FDA3
:103FC0000820606400BF002084F8400000BF01208A
:103FD000D8E7FFE7206800682840A84201D1012007
:103FE00000E00020B842C3D00020CBE710B5024863
:103FF000FEF710FC10BD0000DC01002010B50248E7
:10400000FEF708FC10BD00002402002000BFFEE700
:104010000FB4054B10B503A9044A029800F038F814
:1040200010BC5DF814FB0000F94600087C0000207D
:1040300002480068C0F30220704700000CED00E069
:1040400010B5002804DB0A07130E054A135406E0D6
:104050000A07140E034A00F00F031B1FD45410BDAF
:1040600000E400E018ED00E0004870478000002008
:1040700002E008C8121F08C1002AFAD17047704731
:10408000002001E001C1121F002AFBD1704700008F
:104090002DE9FF4F8DB00F460546002606E0252886
:1040A0000BD0DDE90F1290476D1C761C2878002894
:1040B000F5D111B03046BDE8F08F0024A246A146EC
:1040C0000122EC4900E0044315F8013F203B02FACD
:1040D00003F00842F7D128782A2810D06FF02F0279
:1040E0002878A0F13001092914D80AEB8A0102EBE3
:1040F000410144F0020400EB010A6D1CF0E701CF1E
:104100005FEA000A03D544F40054CAF1000A44F0FF
:1041100002046D1C28782E2817D115F8010F44F0E1
:1041200004042A280ED06FF02F022878A0F1300165
:1041300009290AD809EB890102EB410100EB0109C9
:104140006D1CF2E757F8049B6D1C28786C280FD083
:1041500006DC4C2817D068280DD06A2814D104E05A
:10416000742810D07A280FD10DE044F400140AE02E
:1041700044F4801401E044F440146978814202D18F
:1041800004F580146D1C6D1C2A786E2A1FD00CDC7F
:10419000632A31D004DC002A8BD0582A11D1A3E045
:1041A000642A68D0692A0CD165E0732A2ED004DC19
:1041B0006F2A73D0702A04D19BE0752A6FD0782AB9
:1041C0006ED01046DDE90F129047761C50E1C4F323
:1041D0000250022806D0032809D0042801CF09D0B4
:1041E000066045E101CFF117C0E9006140E101CF70
:1041F00006803DE106703BE117F8040B8DF80000E6
:1042000000208DF80100EB46012003E057F804BBC5
:104210004FF0FF3061074FF0000102D40DE008F1CC
:104220000101884649450FDA8045F8DB1BF8081084
:104230000029F4D108E008F1010188468142FADB47
:104240001BF808100029F6D1DDE90F23AAEB0800BE
:104250008146214600F036F9304400EB080604E0C0
:10426000DDE90F121BF8010B9047B8F10108F7D2F6
:1042700021464846F7E00A21C4F302534FF0000BF1
:104280000891022B04D001CFC117032B09D00AE0FB
:10429000FF1D27F00707F7E8020108E032E01FE002
:1042A00020E000B2C117042B01D140B2C117031E98
:1042B00071F1000307DA4FF0000CD0EB0C006CEB4F
:1042C00001012D2302E0230504D52B238DF8243092
:1042D000012303E0E30701D02023F7E7984658E0E5
:1042E0000A2110E010210EE010204FF0000B089082
:1042F0000CE010214FF0000B44F004044FF00809CB
:10430000089103E008214FF0000B0891C4F3025319
:10431000022B04D001CF0021032B06D006E0FF1DA5
:1043200027F00707F7E8020103E080B2042B00D171
:10433000C0B24FF0000823072BD5702A07D0DDF854
:1043400020C08CF0100C5CEA0B0C05D00EE0402372
:104350008DF82430012308E050EA010306D0302311
:104360008DF824308DF8252002239846DDF820C0F2
:104370008CF0080C5CEA0B0C0BD150EA010301D164
:10438000630706D530238DF824304FF00108A9F1DA
:104390000109582A04D038A20B9208AA0A920BE00D
:1043A0003AA2F9E75B46089AFBF7EBFE0B9B9B5C96
:1043B0000A9A521E0A92137050EA0102F2D10A9828
:1043C000ADEB000000F1200B600702D524F480342F
:1043D00001E04FF00109D94502DDA9EB0B0000E037
:1043E000002000EB0B0141440890AAEB010AE00316
:1043F00006D4DDE90F232146504600F063F8064459
:104400004FF0000908E009A911F80900DDE90F12D1
:10441000904709F10109761CC145F4DBE0030CD596
:10442000DDE90F232146504600F04CF8064404E035
:10443000DDE90F1230209047761C0899481E08903D
:104440000029F5DC08E00A980A990078491C0A91CD
:10445000DDE90F129047761CBBF10001ABF1010BB7
:10446000F1DC21465046DDE90F2300F019F806443F
:104470006D1C1BE6092801003031323334353637E4
:1044800038396162636465660000000030313233A0
:104490003435363738394142434445460000000040
:1044A0002DE9F041044600251E461746880404D431
:1044B00005E039462020B0476D1C641EF9D528461A
:1044C000BDE8F0812DE9F041044600251E469046E6
:1044D000C80301D5302700E02027880404D505E073
:1044E00041463846B0476D1C641EF9D52846BDE8E4
:1044F000F0810146B42900DDB4214FF4FA6048434D
:10450000B423B0FBF3F000F5FA7290B270470000EC
:1045100008B5FEF76FFCFCF7D7F8FCF701F8FCF7DD
:104520005BF900F08BFC0446FEF78CFE00278BE065
:104530004648FDF706F846480068406A05B2454817
:104540000088281A06B2434805800EB306EB8600A1
:104550004149098801EB4004002C00DA0024B4F53D
:104560007A7F01DB40F2E7343B490C800846008843
:10457000002801DD012000E00020C1B2364800889B
:10458000FCF710F93448018834A0FFF741FD00BF63
:1045900029E0FCF79FFF354908609DF800000D28D1
:1045A00003D09DF800000A280FD131480078002878
:1045B00019DD00202F492E4A12788854084600F051
:1045C00083FA00202A4908700DE02948007817284E
:1045D00009D29DF80010264802780078401C244B30
:1045E0001870244881546846FBF7EAFF0028D0D1B0
:1045F0001F480078002811DDFCF76CFF1B49096893
:10460000401AC8280AD300201A49194A1278885437
:10461000084600F059FA002015490870FCF75AFFC7
:10462000C01BB0F57A7F09D3FCF754FF0746FBF7B0
:1046300071FF0446214610A0FFF7EAFCFEF760FC7C
:104640000A20FCF787FD00BF72E70000F800002099
:104650004C01002018000020100000206B6E6F62DB
:104660002D3E70776D3D25750D0A00001400002069
:1046700012000020B002002070776D3D25357520B6
:1046800020286F70656E2D6C6F6F702C206E6F2000
:10469000656E636F646572290D0A0000134A02EBB0
:1046A0000012134B1B5C32F81320124B53F82030CE
:1046B0009A1A104B43F820200C4A02EB00120C4BC4
:1046C0001B5C22F813100B4A52F820200A44094BB5
:1046D00043F82020064A125C521CD2B2044B1A54F2
:1046E000082A01DB00221A5470470000A0030020B2
:1046F00078000020D003002013B50C464FF6FF735E
:10470000012269460248FEF706FB00981CBD000026
:10471000DC01002008B500BF1648806940F00100A8
:10472000144988610846806900F00100009000BFCC
:1047300000BF1148446824F0E06444F00074446011
:10474000FCF712FFFEF7D5FFFEF7F6FDFEF7D2FDF0
:10475000FEF78AFDFEF76EFEFEF7D8FEFEF712FFAB
:10476000FEF750FFFEF76AFFFEF750FEFFF7D0FEA0
:1047700000BFFEE70010024000000140F0B5054612
:104780000C46042C01DA0020F0BDA01E81B22846A0
:1047900000F00DF80646A01E295C601E285C41EA68
:1047A0000027BE4201D10120EEE70020ECE730B542
:1047B00002460B464FF6FF70002111E0545C60404A
:1047C000002409E000F0010525B14AF2010585EA5F
:1047D000600000E04010641C082CF3DB4C1CA1B20C
:1047E0009942EBDB30BD2DE9FF4F85B006461546FB
:1047F000DDF850A00698042803DA002009B0BDE8CF
:10480000F08F96F8008077781298804501D00020CC
:10481000F4E7002400200490032F3BD1F078B17816
:1048200040EA012003907079317940EA0129B9F119
:10483000000F02D0B9F17D0F00DDB5E02046611C0C
:104840008CB205F800802046611C8CB22F544FEAD0
:104850004960020E2046611C8CB22A544FF0000BB6
:1048600015E00399594488B2139988470290029839
:10487000020A2046611C8CB22A540298C2B2204619
:10488000611C8CB22A540BF101001FFA80FBCB454E
:10489000E7DBABE0062F1AD1F078B17840EA0129C6
:1048A0007079317940EA012BBAF1000F04D05946F2
:1048B0004846D04700B188E0002005E0335C21463F
:1048C000621C94B26B54401C0628F7DB8EE0102F5C
:1048D00059D1F078B17840EA0120039070793179AC
:1048E00040EA0129B0790290B9F1000F06D0B9F180
:1048F0007D0F03DC0298B0EB490F00D054E04FF07D
:10490000070B002001901AE00BF10100305C16F853
:104910000B1040EA012000900BF102001FFA80FB0F
:10492000BAF1000F07D0019A0399114488B2009997
:10493000D04700B149E00198401C80B20190019835
:104940004845E1DB2046611C8CB205F8008020461A
:10495000611C8CB22F540398020A2046611C8CB251
:104960002A540398C2B22146601C84B26A544FEAAA
:1049700019222046611C8CB22A542046611C8CB23C
:1049800005F8009032E02046611C8CB205F80080EA
:1049900047F080022046611C8CB22A540122204636
:1049A000611C8CB22A5421E02046611C8CB205F8AF
:1049B000008047F080022146601C84B26A540322C2
:1049C0002046611C8CB22A5410E02046611C8CB237
:1049D00005F8008047F080022046611C8CB22A5402
:1049E00002222046611C8CB22A5400BF2146284670
:1049F000FFF7DDFE04900498C2B22046611C8CB221
:104A00002A540498020A2046611C8CB22A5420467B
:104A1000F4E6000001460A2903DA034830F81100E1
:104A200070470020FCE700004C03002070B50546ED
:104A30000C460A2D02DB4FF0FF3070BD25B1052D6D
:104A400011D0082D2FD124E0B4F57A7F01DB40F29C
:104A5000E734164820F8154001201549087015481C
:104A600004800020E9E7022C02DD4FF0FF30E4E78C
:104A70000E4820F815400CB1012000E000200E493E
:104A8000087000200D490870E0B2FBF7C3FE00205B
:104A9000D3E7064820F81540012009490870094865
:104AA00004800020C9E74FF0FF30C6E74C03002028
:104AB0003D0000203E000020450000205400002062
:104AC00040000020420000202DE9F8430546294619
:104AD00083A0FFF79DFA002604E0A95D85A0FFF7FB
:104AE00097FA761CA85D08B1082EF6DB83A0FFF7C5
:104AF0008FFA2C4600E0641C207810B12078212821
:104B0000F9DB207852280BD02078722808D0207842
:104B10004F2805D020786F2802D02078302813D174
:104B2000601CFBF721FB86B2B6F57A7F01DB40F211
:104B3000E7367348068001213046FBF733FE3146E5
:104B400070A0FFF765FAC8E02078532802D02078DB
:104B500073280AD100206A49088000210846FBF723
:104B600021FE6EA0FFF754FAB7E020783F2803D16A
:104B70006E48FFF74DFAB0E02078452802D0207843
:104B8000652807D16A480068406A01B269A0FFF74A
:104B90003FFAA2E02078562802D0207876280ED15D
:104BA000601CFBF7E1FA86B2B42E00DDB426F0B249
:104BB000FBF71EFE314662A0FFF72AFA8DE020784F
:104BC000412802D02078612806D10120FBF722FE7F
:104BD00060A0FFF71DFA80E02078422802D02078FC
:104BE000622806D10220FBF715FE60A0FFF710FA3D
:104BF00073E02078432802D02078632835D160788C
:104C00004C2802D060786C2815D10120FBF70CFDF0
:104C100007460220FBF708FD8046FEF7E5F806464A
:104C2000FEF7DCF881464B464246394655A00096D1
:104C3000FFF7EEF951E06078332812D10220FBF73C
:104C4000F3FC06460120FBF7EFFC07460020FBF7CC
:104C5000EBFC804633463A46414657A0FFF7D8F969
:104C60003BE05BA0FFF7D4F937E02078542802D06E
:104C7000207874282DD160784C2802D060786C2878
:104C80000ED1A01CFBF770FA86B23046FEF7E0FAB0
:104C9000FEF7A4F80646314651A0FFF7B9F91CE02B
:104CA0006078522802D0607872280ED1A01CFBF7E1
:104CB0005BFA86B23046FEF7D1FAFEF795F8064663
:104CC00031464DA0FFF7A4F907E051A0FFF7A0F986
:104CD00003E0294652A0FFF79BF9BDE8F8830000E6
:104CE0005B4442475D20676F743A27257327205B3A
:104CF0000000000025303258200000005D0D0A0041
:104D0000100000203E3E2070776D3D257520286FF5
:104D100070656E2D6C6F6F70290D0A003E3E20731A
:104D2000746F707065640D0A00000000A44F0008E5
:104D30004C010020434E543D25640D0A0000000044
:104D40003E3E20736572766F20616E676C653D250F
:104D5000750D0A003E3E20736F7274204120283387
:104D60003020646567290D0A000000003E3E207374
:104D70006F72742042202831353020646567290D18
:104D80000A0000006C696768743D257520726563D0
:104D90006865636B3D2575207C207468725F6C6963
:104DA0006768743D2575207468725F726563686515
:104DB000636B3D25750D0A005041343D257520502B
:104DC00042303D2575205042313D25750D0A0000C9
:104DD000756E6B6E6F776E204320636D640D0A00F5
:104DE0003E3E206C696768745F7468726573683DE5
:104DF00025750D0A000000003E3E2072656368655F
:104E0000636B5F7468726573683D25750D0A0000F9
:104E1000756E6B6E6F776E205420636D640D0A00A3
:104E2000756E6B6E6F776E20636D643A202573200C
:104E30002874797065203F290D0A00002DE9F041A2
:104E40000024FBF73FFC0020FBF7EEFB05460120AA
:104E5000FBF7EAFB06460220FBF7E6FB07460DB927
:104E600006B94FB140F6FF70854203D1864201D1A9
:104E7000874201D044F001040848006808B144F0BA
:104E800002040748006808B144F0040405480068BB
:104E900008B144F008042046BDE8F0810401002078
:104EA0004C0100209401002010B5502802DBB0F521
:104EB0007A6F06DD0B78052B09DA0B785B1C0B701B
:104EC00005E00B78002B02DD0B785B1E0B700B7876
:104ED000052B05DB064B1B881343054C238006E09E
:104EE0000B7823B9024B1B889343014C238010BDE0
:104EF0004600002002030405060708090A0B0C0DF2
:104F00000E0F10100102000000000000000001025E
:104F10000304060708090000000001020304004022
:104F2000404040404040404041414141414040407C
:104F300040404040404040404040404040404005AC
:104F40000202020202020202020202020202022023
:104F50002020202020202020200202020202020223
:104F60009090909090901010101010101010101041
:104F70001010101010101010101002020202020285
:104F800088888888888808080808080808080808A1
:104F90000808080808080808080802020202400079
:104FA0001F4F00084F2F523C70776D3E28307E39DE
:104FB00039392920736574207C20532073746F70F5
:104FC000207C204520656E632D636E74207C205606
:104FD0003C6465673E20736572766F207C20412FAC
:104FE0004220736F7274207C20544C2F54523C74B6
:104FF00068723E20E6A087E5AE9A207C20434C20D4
:10500000E68993E58DB0207C20433320E4B889E81D
:10501000B7AF414443207C203F2068656C700D0A87
:105020000000000044500008000000208400000040
:1050300070400008C8500008840000205C0B00008D
:105040008040000800000000100000000100000087
:1050500000127A00000000000000000000000000C4
:105060000000000000000000000000000000000040
:105070000000000000000000000000000000000030
:105080000000000000000000000000000000000020
:1050900000000008C409000000000000000000003B
:1050A0000000000000000000000000000000000000
:1050B00000000000000000000000000000000000F0
:0850C0000000000000000000E8
:04000005080000ED02
:00000001FF
